{
  "_format": "hh-sol-artifact-1",
  "contractName": "MyNFT",
  "sourceName": "contracts/MyNFT.sol",
  "abi": [
    {
      "inputs": [
        {
          "internalType": "string",
          "name": "_name",
          "type": "string"
        },
        {
          "internalType": "string",
          "name": "_symbol",
          "type": "string"
        },
        {
          "internalType": "string",
          "name": "_baseURI",
          "type": "string"
        }
      ],
      "stateMutability": "nonpayable",
      "type": "constructor"
    },
    {
      "anonymous": false,
      "inputs": [
        {
          "indexed": true,
          "internalType": "address",
          "name": "owner",
          "type": "address"
        },
        {
          "indexed": true,
          "internalType": "address",
          "name": "approved",
          "type": "address"
        },
        {
          "indexed": true,
          "internalType": "uint256",
          "name": "tokenId",
          "type": "uint256"
        }
      ],
      "name": "Approval",
      "type": "event"
    },
    {
      "anonymous": false,
      "inputs": [
        {
          "indexed": true,
          "internalType": "address",
          "name": "owner",
          "type": "address"
        },
        {
          "indexed": true,
          "internalType": "address",
          "name": "operator",
          "type": "address"
        },
        {
          "indexed": false,
          "internalType": "bool",
          "name": "approved",
          "type": "bool"
        }
      ],
      "name": "ApprovalForAll",
      "type": "event"
    },
    {
      "anonymous": false,
      "inputs": [
        {
          "indexed": true,
          "internalType": "address",
          "name": "previousOwner",
          "type": "address"
        },
        {
          "indexed": true,
          "internalType": "address",
          "name": "newOwner",
          "type": "address"
        }
      ],
      "name": "OwnershipTransferred",
      "type": "event"
    },
    {
      "anonymous": false,
      "inputs": [
        {
          "indexed": true,
          "internalType": "address",
          "name": "from",
          "type": "address"
        },
        {
          "indexed": true,
          "internalType": "address",
          "name": "to",
          "type": "address"
        },
        {
          "indexed": true,
          "internalType": "uint256",
          "name": "tokenId",
          "type": "uint256"
        }
      ],
      "name": "Transfer",
      "type": "event"
    },
    {
      "inputs": [],
      "name": "MAX_MINT",
      "outputs": [
        {
          "internalType": "uint256",
          "name": "",
          "type": "uint256"
        }
      ],
      "stateMutability": "view",
      "type": "function"
    },
    {
      "inputs": [],
      "name": "PRICE",
      "outputs": [
        {
          "internalType": "uint256",
          "name": "",
          "type": "uint256"
        }
      ],
      "stateMutability": "view",
      "type": "function"
    },
    {
      "inputs": [
        {
          "internalType": "address",
          "name": "to",
          "type": "address"
        },
        {
          "internalType": "uint256",
          "name": "tokenId",
          "type": "uint256"
        }
      ],
      "name": "approve",
      "outputs": [],
      "stateMutability": "nonpayable",
      "type": "function"
    },
    {
      "inputs": [
        {
          "internalType": "address",
          "name": "owner",
          "type": "address"
        }
      ],
      "name": "balanceOf",
      "outputs": [
        {
          "internalType": "uint256",
          "name": "",
          "type": "uint256"
        }
      ],
      "stateMutability": "view",
      "type": "function"
    },
    {
      "inputs": [],
      "name": "baseURI",
      "outputs": [
        {
          "internalType": "string",
          "name": "",
          "type": "string"
        }
      ],
      "stateMutability": "view",
      "type": "function"
    },
    {
      "inputs": [
        {
          "internalType": "uint256",
          "name": "tokenId",
          "type": "uint256"
        }
      ],
      "name": "getApproved",
      "outputs": [
        {
          "internalType": "address",
          "name": "",
          "type": "address"
        }
      ],
      "stateMutability": "view",
      "type": "function"
    },
    {
      "inputs": [
        {
          "internalType": "address",
          "name": "owner",
          "type": "address"
        },
        {
          "internalType": "address",
          "name": "operator",
          "type": "address"
        }
      ],
      "name": "isApprovedForAll",
      "outputs": [
        {
          "internalType": "bool",
          "name": "",
          "type": "bool"
        }
      ],
      "stateMutability": "view",
      "type": "function"
    },
    {
      "inputs": [
        {
          "internalType": "uint256",
          "name": "_amount",
          "type": "uint256"
        }
      ],
      "name": "mint",
      "outputs": [],
      "stateMutability": "payable",
      "type": "function"
    },
    {
      "inputs": [],
      "name": "name",
      "outputs": [
        {
          "internalType": "string",
          "name": "",
          "type": "string"
        }
      ],
      "stateMutability": "view",
      "type": "function"
    },
    {
      "inputs": [],
      "name": "owner",
      "outputs": [
        {
          "internalType": "address",
          "name": "",
          "type": "address"
        }
      ],
      "stateMutability": "view",
      "type": "function"
    },
    {
      "inputs": [
        {
          "internalType": "uint256",
          "name": "tokenId",
          "type": "uint256"
        }
      ],
      "name": "ownerOf",
      "outputs": [
        {
          "internalType": "address",
          "name": "",
          "type": "address"
        }
      ],
      "stateMutability": "view",
      "type": "function"
    },
    {
      "inputs": [],
      "name": "renounceOwnership",
      "outputs": [],
      "stateMutability": "nonpayable",
      "type": "function"
    },
    {
      "inputs": [],
      "name": "reveal",
      "outputs": [],
      "stateMutability": "nonpayable",
      "type": "function"
    },
    {
      "inputs": [],
      "name": "revealed",
      "outputs": [
        {
          "internalType": "bool",
          "name": "",
          "type": "bool"
        }
      ],
      "stateMutability": "view",
      "type": "function"
    },
    {
      "inputs": [
        {
          "internalType": "address",
          "name": "from",
          "type": "address"
        },
        {
          "internalType": "address",
          "name": "to",
          "type": "address"
        },
        {
          "internalType": "uint256",
          "name": "tokenId",
          "type": "uint256"
        }
      ],
      "name": "safeTransferFrom",
      "outputs": [],
      "stateMutability": "nonpayable",
      "type": "function"
    },
    {
      "inputs": [
        {
          "internalType": "address",
          "name": "from",
          "type": "address"
        },
        {
          "internalType": "address",
          "name": "to",
          "type": "address"
        },
        {
          "internalType": "uint256",
          "name": "tokenId",
          "type": "uint256"
        },
        {
          "internalType": "bytes",
          "name": "data",
          "type": "bytes"
        }
      ],
      "name": "safeTransferFrom",
      "outputs": [],
      "stateMutability": "nonpayable",
      "type": "function"
    },
    {
      "inputs": [
        {
          "internalType": "address",
          "name": "operator",
          "type": "address"
        },
        {
          "internalType": "bool",
          "name": "approved",
          "type": "bool"
        }
      ],
      "name": "setApprovalForAll",
      "outputs": [],
      "stateMutability": "nonpayable",
      "type": "function"
    },
    {
      "inputs": [
        {
          "internalType": "string",
          "name": "_baseURI",
          "type": "string"
        }
      ],
      "name": "setBaseURI",
      "outputs": [],
      "stateMutability": "nonpayable",
      "type": "function"
    },
    {
      "inputs": [
        {
          "internalType": "bytes4",
          "name": "interfaceId",
          "type": "bytes4"
        }
      ],
      "name": "supportsInterface",
      "outputs": [
        {
          "internalType": "bool",
          "name": "",
          "type": "bool"
        }
      ],
      "stateMutability": "view",
      "type": "function"
    },
    {
      "inputs": [],
      "name": "symbol",
      "outputs": [
        {
          "internalType": "string",
          "name": "",
          "type": "string"
        }
      ],
      "stateMutability": "view",
      "type": "function"
    },
    {
      "inputs": [
        {
          "internalType": "uint256",
          "name": "tokenId",
          "type": "uint256"
        }
      ],
      "name": "tokenURI",
      "outputs": [
        {
          "internalType": "string",
          "name": "",
          "type": "string"
        }
      ],
      "stateMutability": "view",
      "type": "function"
    },
    {
      "inputs": [],
      "name": "totalSupply",
      "outputs": [
        {
          "internalType": "uint256",
          "name": "",
          "type": "uint256"
        }
      ],
      "stateMutability": "view",
      "type": "function"
    },
    {
      "inputs": [
        {
          "internalType": "address",
          "name": "from",
          "type": "address"
        },
        {
          "internalType": "address",
          "name": "to",
          "type": "address"
        },
        {
          "internalType": "uint256",
          "name": "tokenId",
          "type": "uint256"
        }
      ],
      "name": "transferFrom",
      "outputs": [],
      "stateMutability": "nonpayable",
      "type": "function"
    },
    {
      "inputs": [
        {
          "internalType": "address",
          "name": "newOwner",
          "type": "address"
        }
      ],
      "name": "transferOwnership",
      "outputs": [],
      "stateMutability": "nonpayable",
      "type": "function"
    },
    {
      "inputs": [],
      "name": "withdraw",
      "outputs": [],
      "stateMutability": "nonpayable",
      "type": "function"
    }
  ],
  "bytecode": "0x60806040526000600660146101000a81548160ff0219169083151502179055503480156200002c57600080fd5b5060405162003f7b38038062003f7b8339818101604052810190620000529190620003f5565b82828160009081620000659190620006f9565b508060019081620000779190620006f9565b5050506200009a6200008e620000b460201b60201c565b620000bc60201b60201c565b620000ab816200018260201b60201c565b50505062000863565b600033905090565b6000600660009054906101000a900473ffffffffffffffffffffffffffffffffffffffff16905081600660006101000a81548173ffffffffffffffffffffffffffffffffffffffff021916908373ffffffffffffffffffffffffffffffffffffffff1602179055508173ffffffffffffffffffffffffffffffffffffffff168173ffffffffffffffffffffffffffffffffffffffff167f8be0079c531659141344cd1fd0a4f28419497f9722a3daafe3b4186f6b6457e060405160405180910390a35050565b62000192620001a760201b60201c565b8060079081620001a39190620006f9565b5050565b620001b7620000b460201b60201c565b73ffffffffffffffffffffffffffffffffffffffff16620001dd6200023860201b60201c565b73ffffffffffffffffffffffffffffffffffffffff161462000236576040517f08c379a00000000000000000000000000000000000000000000000000000000081526004016200022d9062000841565b60405180910390fd5b565b6000600660009054906101000a900473ffffffffffffffffffffffffffffffffffffffff16905090565b6000604051905090565b600080fd5b600080fd5b600080fd5b600080fd5b6000601f19601f8301169050919050565b7f4e487b7100000000000000000000000000000000000000000000000000000000600052604160045260246000fd5b620002cb8262000280565b810181811067ffffffffffffffff82111715620002ed57620002ec62000291565b5b80604052505050565b60006200030262000262565b9050620003108282620002c0565b919050565b600067ffffffffffffffff82111562000333576200033262000291565b5b6200033e8262000280565b9050602081019050919050565b60005b838110156200036b5780820151818401526020810190506200034e565b60008484015250505050565b60006200038e620003888462000315565b620002f6565b905082815260208101848484011115620003ad57620003ac6200027b565b5b620003ba8482856200034b565b509392505050565b600082601f830112620003da57620003d962000276565b5b8151620003ec84826020860162000377565b91505092915050565b6000806000606084860312156200041157620004106200026c565b5b600084015167ffffffffffffffff81111562000432576200043162000271565b5b6200044086828701620003c2565b935050602084015167ffffffffffffffff81111562000464576200046362000271565b5b6200047286828701620003c2565b925050604084015167ffffffffffffffff81111562000496576200049562000271565b5b620004a486828701620003c2565b9150509250925092565b600081519050919050565b7f4e487b7100000000000000000000000000000000000000000000000000000000600052602260045260246000fd5b600060028204905060018216806200050157607f821691505b602082108103620005175762000516620004b9565b5b50919050565b60008190508160005260206000209050919050565b60006020601f8301049050919050565b600082821b905092915050565b600060088302620005817fffffffffffffffffffffffffffffffffffffffffffffffffffffffffffffffff8262000542565b6200058d868362000542565b95508019841693508086168417925050509392505050565b6000819050919050565b6000819050919050565b6000620005da620005d4620005ce84620005a5565b620005af565b620005a5565b9050919050565b6000819050919050565b620005f683620005b9565b6200060e6200060582620005e1565b8484546200054f565b825550505050565b600090565b6200062562000616565b62000632818484620005eb565b505050565b5b818110156200065a576200064e6000826200061b565b60018101905062000638565b5050565b601f821115620006a95762000673816200051d565b6200067e8462000532565b810160208510156200068e578190505b620006a66200069d8562000532565b83018262000637565b50505b505050565b600082821c905092915050565b6000620006ce60001984600802620006ae565b1980831691505092915050565b6000620006e98383620006bb565b9150826002028217905092915050565b6200070482620004ae565b67ffffffffffffffff81111562000720576200071f62000291565b5b6200072c8254620004e8565b620007398282856200065e565b600060209050601f8311600181146200077157600084156200075c578287015190505b620007688582620006db565b865550620007d8565b601f19841662000781866200051d565b60005b82811015620007ab5784890151825560018201915060208501945060208101905062000784565b86831015620007cb5784890151620007c7601f891682620006bb565b8355505b6001600288020188555050505b505050505050565b600082825260208201905092915050565b7f4f776e61626c653a2063616c6c6572206973206e6f7420746865206f776e6572600082015250565b600062000829602083620007e0565b91506200083682620007f1565b602082019050919050565b600060208201905081810360008301526200085c816200081a565b9050919050565b61370880620008736000396000f3fe6080604052600436106101665760003560e01c806370a08231116100d1578063a22cb4651161008a578063c87b56dd11610064578063c87b56dd146104e3578063e985e9c514610520578063f0292a031461055d578063f2fde38b1461058857610166565b8063a22cb4651461047a578063a475b5dd146104a3578063b88d4fde146104ba57610166565b806370a0823114610389578063715018a6146103c65780638d859f3e146103dd5780638da5cb5b1461040857806395d89b4114610433578063a0712d681461045e57610166565b80633ccfd60b116101235780633ccfd60b1461028d57806342842e0e146102a457806351830227146102cd57806355f804b3146102f85780636352211e146103215780636c0360eb1461035e57610166565b806301ffc9a71461016b57806306fdde03146101a8578063081812fc146101d3578063095ea7b31461021057806318160ddd1461023957806323b872dd14610264575b600080fd5b34801561017757600080fd5b50610192600480360381019061018d9190612138565b6105b1565b60405161019f9190612180565b60405180910390f35b3480156101b457600080fd5b506101bd610693565b6040516101ca919061222b565b60405180910390f35b3480156101df57600080fd5b506101fa60048036038101906101f59190612283565b610725565b60405161020791906122f1565b60405180910390f35b34801561021c57600080fd5b5061023760048036038101906102329190612338565b61076b565b005b34801561024557600080fd5b5061024e610882565b60405161025b9190612387565b60405180910390f35b34801561027057600080fd5b5061028b600480360381019061028691906123a2565b610893565b005b34801561029957600080fd5b506102a26108f3565b005b3480156102b057600080fd5b506102cb60048036038101906102c691906123a2565b61098d565b005b3480156102d957600080fd5b506102e26109ad565b6040516102ef9190612180565b60405180910390f35b34801561030457600080fd5b5061031f600480360381019061031a919061252a565b6109c0565b005b34801561032d57600080fd5b5061034860048036038101906103439190612283565b6109db565b60405161035591906122f1565b60405180910390f35b34801561036a57600080fd5b50610373610a61565b604051610380919061222b565b60405180910390f35b34801561039557600080fd5b506103b060048036038101906103ab9190612573565b610aef565b6040516103bd9190612387565b60405180910390f35b3480156103d257600080fd5b506103db610ba6565b005b3480156103e957600080fd5b506103f2610bba565b6040516103ff9190612387565b60405180910390f35b34801561041457600080fd5b5061041d610bc5565b60405161042a91906122f1565b60405180910390f35b34801561043f57600080fd5b50610448610bef565b604051610455919061222b565b60405180910390f35b61047860048036038101906104739190612283565b610c81565b005b34801561048657600080fd5b506104a1600480360381019061049c91906125cc565b610e0a565b005b3480156104af57600080fd5b506104b8610e20565b005b3480156104c657600080fd5b506104e160048036038101906104dc91906126ad565b610e95565b005b3480156104ef57600080fd5b5061050a60048036038101906105059190612283565b610ef7565b604051610517919061222b565b60405180910390f35b34801561052c57600080fd5b5061054760048036038101906105429190612730565b611091565b6040516105549190612180565b60405180910390f35b34801561056957600080fd5b50610572611125565b60405161057f9190612387565b60405180910390f35b34801561059457600080fd5b506105af60048036038101906105aa9190612573565b61112a565b005b60007f80ac58cd000000000000000000000000000000000000000000000000000000007bffffffffffffffffffffffffffffffffffffffffffffffffffffffff1916827bffffffffffffffffffffffffffffffffffffffffffffffffffffffff1916148061067c57507f5b5e139f000000000000000000000000000000000000000000000000000000007bffffffffffffffffffffffffffffffffffffffffffffffffffffffff1916827bffffffffffffffffffffffffffffffffffffffffffffffffffffffff1916145b8061068c575061068b826111ad565b5b9050919050565b6060600080546106a29061279f565b80601f01602080910402602001604051908101604052809291908181526020018280546106ce9061279f565b801561071b5780601f106106f05761010080835404028352916020019161071b565b820191906000526020600020905b8154815290600101906020018083116106fe57829003601f168201915b5050505050905090565b600061073082611217565b6004600083815260200190815260200160002060009054906101000a900473ffffffffffffffffffffffffffffffffffffffff169050919050565b6000610776826109db565b90508073ffffffffffffffffffffffffffffffffffffffff168373ffffffffffffffffffffffffffffffffffffffff16036107e6576040517f08c379a00000000000000000000000000000000000000000000000000000000081526004016107dd90612842565b60405180910390fd5b8073ffffffffffffffffffffffffffffffffffffffff16610805611262565b73ffffffffffffffffffffffffffffffffffffffff16148061083457506108338161082e611262565b611091565b5b610873576040517f08c379a000000000000000000000000000000000000000000000000000000000815260040161086a906128d4565b60405180910390fd5b61087d838361126a565b505050565b600061088e6008611323565b905090565b6108a461089e611262565b82611331565b6108e3576040517f08c379a00000000000000000000000000000000000000000000000000000000081526004016108da90612966565b60405180910390fd5b6108ee8383836113c6565b505050565b6108fb6116bf565b600047905060008111610943576040517f08c379a000000000000000000000000000000000000000000000000000000000815260040161093a906129d2565b60405180910390fd5b3373ffffffffffffffffffffffffffffffffffffffff166108fc829081150290604051600060405180830381858888f19350505050158015610989573d6000803e3d6000fd5b5050565b6109a883838360405180602001604052806000815250610e95565b505050565b600660149054906101000a900460ff1681565b6109c86116bf565b80600790816109d79190612b9e565b5050565b6000806109e78361173d565b9050600073ffffffffffffffffffffffffffffffffffffffff168173ffffffffffffffffffffffffffffffffffffffff1603610a58576040517f08c379a0000000000000000000000000000000000000000000000000000000008152600401610a4f90612cbc565b60405180910390fd5b80915050919050565b60078054610a6e9061279f565b80601f0160208091040260200160405190810160405280929190818152602001828054610a9a9061279f565b8015610ae75780601f10610abc57610100808354040283529160200191610ae7565b820191906000526020600020905b815481529060010190602001808311610aca57829003601f168201915b505050505081565b60008073ffffffffffffffffffffffffffffffffffffffff168273ffffffffffffffffffffffffffffffffffffffff1603610b5f576040517f08c379a0000000000000000000000000000000000000000000000000000000008152600401610b5690612d4e565b60405180910390fd5b600360008373ffffffffffffffffffffffffffffffffffffffff1673ffffffffffffffffffffffffffffffffffffffff168152602001908152602001600020549050919050565b610bae6116bf565b610bb8600061177a565b565b66b1a2bc2ec5000081565b6000600660009054906101000a900473ffffffffffffffffffffffffffffffffffffffff16905090565b606060018054610bfe9061279f565b80601f0160208091040260200160405190810160405280929190818152602001828054610c2a9061279f565b8015610c775780601f10610c4c57610100808354040283529160200191610c77565b820191906000526020600020905b815481529060010190602001808311610c5a57829003601f168201915b5050505050905090565b6000610c8d6008611323565b9050600660149054906101000a900460ff1615610cdf576040517f08c379a0000000000000000000000000000000000000000000000000000000008152600401610cd690612dba565b60405180910390fd5b600082118015610cf0575060148211155b610d2f576040517f08c379a0000000000000000000000000000000000000000000000000000000008152600401610d2690612e26565b60405180910390fd5b60148282610d3d9190612e75565b1115610d7e576040517f08c379a0000000000000000000000000000000000000000000000000000000008152600401610d7590612ef5565b60405180910390fd5b348266b1a2bc2ec50000610d929190612f15565b1115610dd3576040517f08c379a0000000000000000000000000000000000000000000000000000000008152600401610dca90612fa3565b60405180910390fd5b610ddd3383611840565b60005b82811015610e0557610df2600861185e565b8080610dfd90612fc3565b915050610de0565b505050565b610e1c610e15611262565b8383611874565b5050565b610e286116bf565b600660149054906101000a900460ff1615610e78576040517f08c379a0000000000000000000000000000000000000000000000000000000008152600401610e6f90612dba565b60405180910390fd5b6001600660146101000a81548160ff021916908315150217905550565b610ea6610ea0611262565b83611331565b610ee5576040517f08c379a0000000000000000000000000000000000000000000000000000000008152600401610edc90612966565b60405180910390fd5b610ef1848484846119e0565b50505050565b6060610f0282611a3c565b610f41576040517f08c379a0000000000000000000000000000000000000000000000000000000008152600401610f3890613057565b60405180910390fd5b60001515600660149054906101000a900460ff16151503610fb057600060078054610f6b9061279f565b905011610f875760405180602001604052806000815250610fa9565b6007604051602001610f999190613151565b6040516020818303038152906040525b905061108c565b600060078054610fbf9061279f565b80601f0160208091040260200160405190810160405280929190818152602001828054610feb9061279f565b80156110385780601f1061100d57610100808354040283529160200191611038565b820191906000526020600020905b81548152906001019060200180831161101b57829003601f168201915b50505050509050600081511161105d5760405180602001604052806000815250611088565b8061106784611a7d565b6040516020016110789291906131a4565b6040516020818303038152906040525b9150505b919050565b6000600560008473ffffffffffffffffffffffffffffffffffffffff1673ffffffffffffffffffffffffffffffffffffffff16815260200190815260200160002060008373ffffffffffffffffffffffffffffffffffffffff1673ffffffffffffffffffffffffffffffffffffffff16815260200190815260200160002060009054906101000a900460ff16905092915050565b601481565b6111326116bf565b600073ffffffffffffffffffffffffffffffffffffffff168173ffffffffffffffffffffffffffffffffffffffff16036111a1576040517f08c379a00000000000000000000000000000000000000000000000000000000081526004016111989061323a565b60405180910390fd5b6111aa8161177a565b50565b60007f01ffc9a7000000000000000000000000000000000000000000000000000000007bffffffffffffffffffffffffffffffffffffffffffffffffffffffff1916827bffffffffffffffffffffffffffffffffffffffffffffffffffffffff1916149050919050565b61122081611a3c565b61125f576040517f08c379a000000000000000000000000000000000000000000000000000000000815260040161125690612cbc565b60405180910390fd5b50565b600033905090565b816004600083815260200190815260200160002060006101000a81548173ffffffffffffffffffffffffffffffffffffffff021916908373ffffffffffffffffffffffffffffffffffffffff160217905550808273ffffffffffffffffffffffffffffffffffffffff166112dd836109db565b73ffffffffffffffffffffffffffffffffffffffff167f8c5be1e5ebec7d5bd14f71427d1e84f3dd0314c0f7b2291e5b200ac8c7c3b92560405160405180910390a45050565b600081600001549050919050565b60008061133d836109db565b90508073ffffffffffffffffffffffffffffffffffffffff168473ffffffffffffffffffffffffffffffffffffffff16148061137f575061137e8185611091565b5b806113bd57508373ffffffffffffffffffffffffffffffffffffffff166113a584610725565b73ffffffffffffffffffffffffffffffffffffffff16145b91505092915050565b8273ffffffffffffffffffffffffffffffffffffffff166113e6826109db565b73ffffffffffffffffffffffffffffffffffffffff161461143c576040517f08c379a0000000000000000000000000000000000000000000000000000000008152600401611433906132cc565b60405180910390fd5b600073ffffffffffffffffffffffffffffffffffffffff168273ffffffffffffffffffffffffffffffffffffffff16036114ab576040517f08c379a00000000000000000000000000000000000000000000000000000000081526004016114a29061335e565b60405180910390fd5b6114b88383836001611b4b565b8273ffffffffffffffffffffffffffffffffffffffff166114d8826109db565b73ffffffffffffffffffffffffffffffffffffffff161461152e576040517f08c379a0000000000000000000000000000000000000000000000000000000008152600401611525906132cc565b60405180910390fd5b6004600082815260200190815260200160002060006101000a81549073ffffffffffffffffffffffffffffffffffffffff02191690556001600360008573ffffffffffffffffffffffffffffffffffffffff1673ffffffffffffffffffffffffffffffffffffffff168152602001908152602001600020600082825403925050819055506001600360008473ffffffffffffffffffffffffffffffffffffffff1673ffffffffffffffffffffffffffffffffffffffff16815260200190815260200160002060008282540192505081905550816002600083815260200190815260200160002060006101000a81548173ffffffffffffffffffffffffffffffffffffffff021916908373ffffffffffffffffffffffffffffffffffffffff160217905550808273ffffffffffffffffffffffffffffffffffffffff168473ffffffffffffffffffffffffffffffffffffffff167fddf252ad1be2c89b69c2b068fc378daa952ba7f163c4a11628f55a4df523b3ef60405160405180910390a46116ba8383836001611b51565b505050565b6116c7611262565b73ffffffffffffffffffffffffffffffffffffffff166116e5610bc5565b73ffffffffffffffffffffffffffffffffffffffff161461173b576040517f08c379a0000000000000000000000000000000000000000000000000000000008152600401611732906133ca565b60405180910390fd5b565b60006002600083815260200190815260200160002060009054906101000a900473ffffffffffffffffffffffffffffffffffffffff169050919050565b6000600660009054906101000a900473ffffffffffffffffffffffffffffffffffffffff16905081600660006101000a81548173ffffffffffffffffffffffffffffffffffffffff021916908373ffffffffffffffffffffffffffffffffffffffff1602179055508173ffffffffffffffffffffffffffffffffffffffff168173ffffffffffffffffffffffffffffffffffffffff167f8be0079c531659141344cd1fd0a4f28419497f9722a3daafe3b4186f6b6457e060405160405180910390a35050565b61185a828260405180602001604052806000815250611b57565b5050565b6001816000016000828254019250508190555050565b8173ffffffffffffffffffffffffffffffffffffffff168373ffffffffffffffffffffffffffffffffffffffff16036118e2576040517f08c379a00000000000000000000000000000000000000000000000000000000081526004016118d990613436565b60405180910390fd5b80600560008573ffffffffffffffffffffffffffffffffffffffff1673ffffffffffffffffffffffffffffffffffffffff16815260200190815260200160002060008473ffffffffffffffffffffffffffffffffffffffff1673ffffffffffffffffffffffffffffffffffffffff16815260200190815260200160002060006101000a81548160ff0219169083151502179055508173ffffffffffffffffffffffffffffffffffffffff168373ffffffffffffffffffffffffffffffffffffffff167f17307eab39ab6107e8899845ad3d59bd9653f200f220920489ca2b5937696c31836040516119d39190612180565b60405180910390a3505050565b6119eb8484846113c6565b6119f784848484611bb2565b611a36576040517f08c379a0000000000000000000000000000000000000000000000000000000008152600401611a2d906134c8565b60405180910390fd5b50505050565b60008073ffffffffffffffffffffffffffffffffffffffff16611a5e8361173d565b73ffffffffffffffffffffffffffffffffffffffff1614159050919050565b606060006001611a8c84611d39565b01905060008167ffffffffffffffff811115611aab57611aaa6123ff565b5b6040519080825280601f01601f191660200182016040528015611add5781602001600182028036833780820191505090505b509050600082602001820190505b600115611b40578080600190039150507f3031323334353637383961626364656600000000000000000000000000000000600a86061a8153600a8581611b3457611b336134e8565b5b04945060008503611aeb575b819350505050919050565b50505050565b50505050565b611b618383611e8c565b611b6e6000848484611bb2565b611bad576040517f08c379a0000000000000000000000000000000000000000000000000000000008152600401611ba4906134c8565b60405180910390fd5b505050565b6000611bd38473ffffffffffffffffffffffffffffffffffffffff166120a9565b15611d2c578373ffffffffffffffffffffffffffffffffffffffff1663150b7a02611bfc611262565b8786866040518563ffffffff1660e01b8152600401611c1e949392919061356c565b6020604051808303816000875af1925050508015611c5a57506040513d601f19601f82011682018060405250810190611c5791906135cd565b60015b611cdc573d8060008114611c8a576040519150601f19603f3d011682016040523d82523d6000602084013e611c8f565b606091505b506000815103611cd4576040517f08c379a0000000000000000000000000000000000000000000000000000000008152600401611ccb906134c8565b60405180910390fd5b805181602001fd5b63150b7a0260e01b7bffffffffffffffffffffffffffffffffffffffffffffffffffffffff1916817bffffffffffffffffffffffffffffffffffffffffffffffffffffffff191614915050611d31565b600190505b949350505050565b600080600090507a184f03e93ff9f4daa797ed6e38ed64bf6a1f0100000000000000008310611d97577a184f03e93ff9f4daa797ed6e38ed64bf6a1f0100000000000000008381611d8d57611d8c6134e8565b5b0492506040810190505b6d04ee2d6d415b85acef81000000008310611dd4576d04ee2d6d415b85acef81000000008381611dca57611dc96134e8565b5b0492506020810190505b662386f26fc100008310611e0357662386f26fc100008381611df957611df86134e8565b5b0492506010810190505b6305f5e1008310611e2c576305f5e1008381611e2257611e216134e8565b5b0492506008810190505b6127108310611e51576127108381611e4757611e466134e8565b5b0492506004810190505b60648310611e745760648381611e6a57611e696134e8565b5b0492506002810190505b600a8310611e83576001810190505b80915050919050565b600073ffffffffffffffffffffffffffffffffffffffff168273ffffffffffffffffffffffffffffffffffffffff1603611efb576040517f08c379a0000000000000000000000000000000000000000000000000000000008152600401611ef290613646565b60405180910390fd5b611f0481611a3c565b15611f44576040517f08c379a0000000000000000000000000000000000000000000000000000000008152600401611f3b906136b2565b60405180910390fd5b611f52600083836001611b4b565b611f5b81611a3c565b15611f9b576040517f08c379a0000000000000000000000000000000000000000000000000000000008152600401611f92906136b2565b60405180910390fd5b6001600360008473ffffffffffffffffffffffffffffffffffffffff1673ffffffffffffffffffffffffffffffffffffffff16815260200190815260200160002060008282540192505081905550816002600083815260200190815260200160002060006101000a81548173ffffffffffffffffffffffffffffffffffffffff021916908373ffffffffffffffffffffffffffffffffffffffff160217905550808273ffffffffffffffffffffffffffffffffffffffff16600073ffffffffffffffffffffffffffffffffffffffff167fddf252ad1be2c89b69c2b068fc378daa952ba7f163c4a11628f55a4df523b3ef60405160405180910390a46120a5600083836001611b51565b5050565b6000808273ffffffffffffffffffffffffffffffffffffffff163b119050919050565b6000604051905090565b600080fd5b600080fd5b60007fffffffff0000000000000000000000000000000000000000000000000000000082169050919050565b612115816120e0565b811461212057600080fd5b50565b6000813590506121328161210c565b92915050565b60006020828403121561214e5761214d6120d6565b5b600061215c84828501612123565b91505092915050565b60008115159050919050565b61217a81612165565b82525050565b60006020820190506121956000830184612171565b92915050565b600081519050919050565b600082825260208201905092915050565b60005b838110156121d55780820151818401526020810190506121ba565b60008484015250505050565b6000601f19601f8301169050919050565b60006121fd8261219b565b61220781856121a6565b93506122178185602086016121b7565b612220816121e1565b840191505092915050565b6000602082019050818103600083015261224581846121f2565b905092915050565b6000819050919050565b6122608161224d565b811461226b57600080fd5b50565b60008135905061227d81612257565b92915050565b600060208284031215612299576122986120d6565b5b60006122a78482850161226e565b91505092915050565b600073ffffffffffffffffffffffffffffffffffffffff82169050919050565b60006122db826122b0565b9050919050565b6122eb816122d0565b82525050565b600060208201905061230660008301846122e2565b92915050565b612315816122d0565b811461232057600080fd5b50565b6000813590506123328161230c565b92915050565b6000806040838503121561234f5761234e6120d6565b5b600061235d85828601612323565b925050602061236e8582860161226e565b9150509250929050565b6123818161224d565b82525050565b600060208201905061239c6000830184612378565b92915050565b6000806000606084860312156123bb576123ba6120d6565b5b60006123c986828701612323565b93505060206123da86828701612323565b92505060406123eb8682870161226e565b9150509250925092565b600080fd5b600080fd5b7f4e487b7100000000000000000000000000000000000000000000000000000000600052604160045260246000fd5b612437826121e1565b810181811067ffffffffffffffff82111715612456576124556123ff565b5b80604052505050565b60006124696120cc565b9050612475828261242e565b919050565b600067ffffffffffffffff821115612495576124946123ff565b5b61249e826121e1565b9050602081019050919050565b82818337600083830152505050565b60006124cd6124c88461247a565b61245f565b9050828152602081018484840111156124e9576124e86123fa565b5b6124f48482856124ab565b509392505050565b600082601f830112612511576125106123f5565b5b81356125218482602086016124ba565b91505092915050565b6000602082840312156125405761253f6120d6565b5b600082013567ffffffffffffffff81111561255e5761255d6120db565b5b61256a848285016124fc565b91505092915050565b600060208284031215612589576125886120d6565b5b600061259784828501612323565b91505092915050565b6125a981612165565b81146125b457600080fd5b50565b6000813590506125c6816125a0565b92915050565b600080604083850312156125e3576125e26120d6565b5b60006125f185828601612323565b9250506020612602858286016125b7565b9150509250929050565b600067ffffffffffffffff821115612627576126266123ff565b5b612630826121e1565b9050602081019050919050565b600061265061264b8461260c565b61245f565b90508281526020810184848401111561266c5761266b6123fa565b5b6126778482856124ab565b509392505050565b600082601f830112612694576126936123f5565b5b81356126a484826020860161263d565b91505092915050565b600080600080608085870312156126c7576126c66120d6565b5b60006126d587828801612323565b94505060206126e687828801612323565b93505060406126f78782880161226e565b925050606085013567ffffffffffffffff811115612718576127176120db565b5b6127248782880161267f565b91505092959194509250565b60008060408385031215612747576127466120d6565b5b600061275585828601612323565b925050602061276685828601612323565b9150509250929050565b7f4e487b7100000000000000000000000000000000000000000000000000000000600052602260045260246000fd5b600060028204905060018216806127b757607f821691505b6020821081036127ca576127c9612770565b5b50919050565b7f4552433732313a20617070726f76616c20746f2063757272656e74206f776e6560008201527f7200000000000000000000000000000000000000000000000000000000000000602082015250565b600061282c6021836121a6565b9150612837826127d0565b604082019050919050565b6000602082019050818103600083015261285b8161281f565b9050919050565b7f4552433732313a20617070726f76652063616c6c6572206973206e6f7420746f60008201527f6b656e206f776e6572206f7220617070726f76656420666f7220616c6c000000602082015250565b60006128be603d836121a6565b91506128c982612862565b604082019050919050565b600060208201905081810360008301526128ed816128b1565b9050919050565b7f4552433732313a2063616c6c6572206973206e6f7420746f6b656e206f776e6560008201527f72206f7220617070726f76656400000000000000000000000000000000000000602082015250565b6000612950602d836121a6565b915061295b826128f4565b604082019050919050565b6000602082019050818103600083015261297f81612943565b9050919050565b7f42616c616e6365206973207a65726f0000000000000000000000000000000000600082015250565b60006129bc600f836121a6565b91506129c782612986565b602082019050919050565b600060208201905081810360008301526129eb816129af565b9050919050565b60008190508160005260206000209050919050565b60006020601f8301049050919050565b600082821b905092915050565b600060088302612a547fffffffffffffffffffffffffffffffffffffffffffffffffffffffffffffffff82612a17565b612a5e8683612a17565b95508019841693508086168417925050509392505050565b6000819050919050565b6000612a9b612a96612a918461224d565b612a76565b61224d565b9050919050565b6000819050919050565b612ab583612a80565b612ac9612ac182612aa2565b848454612a24565b825550505050565b600090565b612ade612ad1565b612ae9818484612aac565b505050565b5b81811015612b0d57612b02600082612ad6565b600181019050612aef565b5050565b601f821115612b5257612b23816129f2565b612b2c84612a07565b81016020851015612b3b578190505b612b4f612b4785612a07565b830182612aee565b50505b505050565b600082821c905092915050565b6000612b7560001984600802612b57565b1980831691505092915050565b6000612b8e8383612b64565b9150826002028217905092915050565b612ba78261219b565b67ffffffffffffffff811115612bc057612bbf6123ff565b5b612bca825461279f565b612bd5828285612b11565b600060209050601f831160018114612c085760008415612bf6578287015190505b612c008582612b82565b865550612c68565b601f198416612c16866129f2565b60005b82811015612c3e57848901518255600182019150602085019450602081019050612c19565b86831015612c5b5784890151612c57601f891682612b64565b8355505b6001600288020188555050505b505050505050565b7f4552433732313a20696e76616c696420746f6b656e2049440000000000000000600082015250565b6000612ca66018836121a6565b9150612cb182612c70565b602082019050919050565b60006020820190508181036000830152612cd581612c99565b9050919050565b7f4552433732313a2061646472657373207a65726f206973206e6f74206120766160008201527f6c6964206f776e65720000000000000000000000000000000000000000000000602082015250565b6000612d386029836121a6565b9150612d4382612cdc565b604082019050919050565b60006020820190508181036000830152612d6781612d2b565b9050919050565b7f52657665616c2068617320616c72656164792068617070656e65640000000000600082015250565b6000612da4601b836121a6565b9150612daf82612d6e565b602082019050919050565b60006020820190508181036000830152612dd381612d97565b9050919050565b7f4d696e7420636f756e7420697320696e76616c69640000000000000000000000600082015250565b6000612e106015836121a6565b9150612e1b82612dda565b602082019050919050565b60006020820190508181036000830152612e3f81612e03565b9050919050565b7f4e487b7100000000000000000000000000000000000000000000000000000000600052601160045260246000fd5b6000612e808261224d565b9150612e8b8361224d565b9250828201905080821115612ea357612ea2612e46565b5b92915050565b7f546f74616c20737570706c792065786365656465640000000000000000000000600082015250565b6000612edf6015836121a6565b9150612eea82612ea9565b602082019050919050565b60006020820190508181036000830152612f0e81612ed2565b9050919050565b6000612f208261224d565b9150612f2b8361224d565b9250828202612f398161224d565b91508282048414831517612f5057612f4f612e46565b5b5092915050565b7f45746865722076616c75652073656e74206973206e6f7420636f727265637400600082015250565b6000612f8d601f836121a6565b9150612f9882612f57565b602082019050919050565b60006020820190508181036000830152612fbc81612f80565b9050919050565b6000612fce8261224d565b91507fffffffffffffffffffffffffffffffffffffffffffffffffffffffffffffffff820361300057612fff612e46565b5b600182019050919050565b7f546f6b656e20646f6573206e6f74206578697374000000000000000000000000600082015250565b60006130416014836121a6565b915061304c8261300b565b602082019050919050565b6000602082019050818103600083015261307081613034565b9050919050565b600081905092915050565b6000815461308f8161279f565b6130998186613077565b945060018216600081146130b457600181146130c9576130fc565b60ff19831686528115158202860193506130fc565b6130d2856129f2565b60005b838110156130f4578154818901526001820191506020810190506130d5565b838801955050505b50505092915050565b7f756e72657665616c656400000000000000000000000000000000000000000000600082015250565b600061313b600a83613077565b915061314682613105565b600a82019050919050565b600061315d8284613082565b91506131688261312e565b915081905092915050565b600061317e8261219b565b6131888185613077565b93506131988185602086016121b7565b80840191505092915050565b60006131b08285613173565b91506131bc8284613173565b91508190509392505050565b7f4f776e61626c653a206e6577206f776e657220697320746865207a65726f206160008201527f6464726573730000000000000000000000000000000000000000000000000000602082015250565b60006132246026836121a6565b915061322f826131c8565b604082019050919050565b6000602082019050818103600083015261325381613217565b9050919050565b7f4552433732313a207472616e736665722066726f6d20696e636f72726563742060008201527f6f776e6572000000000000000000000000000000000000000000000000000000602082015250565b60006132b66025836121a6565b91506132c18261325a565b604082019050919050565b600060208201905081810360008301526132e5816132a9565b9050919050565b7f4552433732313a207472616e7366657220746f20746865207a65726f2061646460008201527f7265737300000000000000000000000000000000000000000000000000000000602082015250565b60006133486024836121a6565b9150613353826132ec565b604082019050919050565b600060208201905081810360008301526133778161333b565b9050919050565b7f4f776e61626c653a2063616c6c6572206973206e6f7420746865206f776e6572600082015250565b60006133b46020836121a6565b91506133bf8261337e565b602082019050919050565b600060208201905081810360008301526133e3816133a7565b9050919050565b7f4552433732313a20617070726f766520746f2063616c6c657200000000000000600082015250565b60006134206019836121a6565b915061342b826133ea565b602082019050919050565b6000602082019050818103600083015261344f81613413565b9050919050565b7f4552433732313a207472616e7366657220746f206e6f6e20455243373231526560008201527f63656976657220696d706c656d656e7465720000000000000000000000000000602082015250565b60006134b26032836121a6565b91506134bd82613456565b604082019050919050565b600060208201905081810360008301526134e1816134a5565b9050919050565b7f4e487b7100000000000000000000000000000000000000000000000000000000600052601260045260246000fd5b600081519050919050565b600082825260208201905092915050565b600061353e82613517565b6135488185613522565b93506135588185602086016121b7565b613561816121e1565b840191505092915050565b600060808201905061358160008301876122e2565b61358e60208301866122e2565b61359b6040830185612378565b81810360608301526135ad8184613533565b905095945050505050565b6000815190506135c78161210c565b92915050565b6000602082840312156135e3576135e26120d6565b5b60006135f1848285016135b8565b91505092915050565b7f4552433732313a206d696e7420746f20746865207a65726f2061646472657373600082015250565b60006136306020836121a6565b915061363b826135fa565b602082019050919050565b6000602082019050818103600083015261365f81613623565b9050919050565b7f4552433732313a20746f6b656e20616c7265616479206d696e74656400000000600082015250565b600061369c601c836121a6565b91506136a782613666565b602082019050919050565b600060208201905081810360008301526136cb8161368f565b905091905056fea264697066735822122006fe911cd7afdc3b356eae15f936ce05b28eb80faad48caceebfae95c3fc28a364736f6c63430008120033",
  "linkReferences": {},
  "deployedLinkReferences": {}
}